:020000040000fa
:080000000002040000000000f2
:020000040000fa
:04000800560f00008f
:020000040000fa
:04000c00560f00008b
:020000040000fa
:04001000560f000087
:020000040000fa
:04001400560f000083
:020000040000fa
:04001800560f00007f
:020000040000fa
:04001c00560f00007b
:020000040000fa
:04002000560f000077
:020000040000fa
:04002400560f000073
:020000040000fa
:04002800560f00006f
:020000040000fa
:04002c00560f00006b
:020000040000fa
:04003000560f000067
:020000040000fa
:04003400f0080000d0
:020000040000fa
:04003800560f00005f
:020000040000fa
:04003c00560f00005b
:020000040000fa
:04004000560f000057
:020000040000fa
:04004400560f000053
:020000040000fa
:04004800560f00004f
:020000040000fa
:04004c00560f00004b
:020000040000fa
:04005000560f000047
:020000040000fa
:04005400560f000043
:020000040000fa
:04005800560f00003f
:020000040000fa
:04005c00560f00003b
:020000040000fa
:04006000560f000037
:020000040000fa
:04006400560f000033
:020000040000fa
:04006800560f00002f
:020000040000fa
:04006c00560f00002b
:020000040000fa
:04007000560f000027
:020000040000fa
:04007400560f000023
:020000040000fa
:04007800560f00001f
:020000040000fa
:04007c00560f00001b
:020000040000fa
:04008000560f000017
:020000040000fa
:04008400560f000013
:020000040000fa
:04008800560f00000f
:020000040000fa
:04008c00560f00000b
:020000040000fa
:04009000560f000007
:020000040000fa
:04009400560f000003
:020000040000fa
:04009800560f0000ff
:020000040000fa
:04009c00560f0000fb
:020000040000fa
:0400a000560f0000f7
:020000040000fa
:0400a400560f0000f3
:020000040000fa
:0400a800560f0000ef
:020000040000fa
:0400ac00560f0000eb
:020000040000fa
:0400b000560f0000e7
:020000040000fa
:0400b400560f0000e3
:020000040000fa
:0400b800560f0000df
:020000040000fa
:0400bc00560f0000db
:020000040000fa
:0400c000560f0000d7
:020000040000fa
:0400c400560f0000d3
:020000040000fa
:0400c800560f0000cf
:020000040000fa
:0400cc00560f0000cb
:020000040000fa
:0400d000560f0000c7
:020000040000fa
:0400d400560f0000c3
:020000040000fa
:0400d800560f0000bf
:020000040000fa
:0400dc00560f0000bb
:020000040000fa
:0400e000560f0000b7
:020000040000fa
:0400e400560f0000b3
:020000040000fa
:0400e800560f0000af
:020000040000fa
:0400ec00560f0000ab
:020000040000fa
:0400f000560f0000a7
:020000040000fa
:0400f400560f0000a3
:020000040000fa
:0400f800560f00009f
:020000040000fa
:0400fc00560f00009b
:020000040000fa
:04010000560f000096
:020000040000fa
:04010400560f000092
:020000040000fa
:04010800560f00008e
:020000040000fa
:04010c00560f00008a
:020000040000fa
:04011000560f000086
:020000040000fa
:04011400560f000082
:020000040000fa
:04011800560f00007e
:020000040000fa
:04011c00560f00007a
:020000040000fa
:04012000560f000076
:020000040000fa
:04012400560f000072
:020000040000fa
:04012800560f00006e
:020000040000fa
:04012c00560f00006a
:020000040000fa
:04013000560f000066
:020000040000fa
:04013400560f000062
:020000040000fa
:04013800560f00005e
:020000040000fa
:04013c00560f00005a
:020000040000fa
:04014000560f000056
:020000040000fa
:04014400560f000052
:020000040000fa
:04014800560f00004e
:020000040000fa
:04014c00560f00004a
:020000040000fa
:04015000560f000046
:020000040000fa
:04015400560f000042
:020000040000fa
:04015800560f00003e
:020000040000fa
:04015c00560f00003a
:020000040000fa
:04016000560f000036
:020000040000fa
:04016400560f000032
:020000040000fa
:04016800560f00002e
:020000040000fa
:04016c00560f00002a
:020000040000fa
:04017000560f000026
:020000040000fa
:04017400560f000022
:020000040000fa
:04017800560f00001e
:020000040000fa
:04017c00560f00001a
:020000040000fa
:04018000560f000016
:020000040000fa
:04018400560f000012
:020000040000fa
:04018800560f00000e
:020000040000fa
:04018c00560f00000a
:020000040000fa
:04019000560f000006
:020000040000fa
:04019400560f000002
:020000040000fa
:04019800560f0000fe
:020000040000fa
:04019c00560f0000fa
:020000040000fa
:0401a000560f0000f6
:020000040000fa
:0401a400560f0000f2
:020000040000fa
:0401a800560f0000ee
:020000040000fa
:0401ac00560f0000ea
:020000040000fa
:0401b000560f0000e6
:020000040000fa
:0401b400560f0000e2
:020000040000fa
:0401b800560f0000de
:020000040000fa
:0401bc00560f0000da
:020000040000fa
:0401c000560f0000d6
:020000040000fa
:0401c400560f0000d2
:020000040000fa
:0401c800560f0000ce
:020000040000fa
:0401cc00560f0000ca
:020000040000fa
:0401d000560f0000c6
:020000040000fa
:0401d400560f0000c2
:020000040000fa
:0401d800560f0000be
:020000040000fa
:0401dc00560f0000ba
:020000040000fa
:0401e000c402000055
:020000040000fa
:0401e40066030000ae
:020000040000fa
:0401e8000804000007
:020000040000fa
:0401ec006c0400009f
:020000040000fa
:04020800560f00008d
:020000040000fa
:04020c00560f000089
:020000040000fa
:04021000560f000085
:020000040000fa
:04021400560f000081
:020000040000fa
:04021800560f00007d
:020000040000fa
:04021c00560f000079
:020000040000fa
:04022000560f000075
:020000040000fa
:04022400560f000071
:020000040000fa
:04022800560f00006d
:020000040000fa
:04022c00560f000069
:020000040000fa
:04023000560f000065
:020000040000fa
:04023400560f000061
:020000040000fa
:04023800560f00005d
:020000040000fa
:04023c00560f000059
:020000040000fa
:04024000560f000055
:020000040000fa
:04024400560f000051
:020000040000fa
:04024800560f00004d
:020000040000fa
:04024c00560f000049
:020000040000fa
:04025000560f000045
:020000040000fa
:04025400560f000041
:020000040000fa
:04025800560f00003d
:020000040000fa
:04025c00560f000039
:020000040000fa
:04026000560f000035
:020000040000fa
:04026400560f000031
:020000040000fa
:04026800560f00002d
:020000040000fa
:04026c00560f000029
:020000040000fa
:04027000560f000025
:020000040000fa
:04027400560f000021
:020000040000fa
:04027800560f00001d
:020000040000fa
:04027c00560f000019
:020000040000fa
:04028000560f000015
:020000040000fa
:04028400560f000011
:020000040000fa
:04028800560f00000d
:020000040000fa
:04028c00560f000009
:020000040000fa
:04029000560f000005
:020000040000fa
:04029400560f000001
:020000040000fa
:04029800560f0000fd
:020000040000fa
:04029c00560f0000f9
:020000040000fa
:0402a000560f0000f5
:020000040000fa
:0402a400560f0000f1
:020000040000fa
:0402a800560f0000ed
:020000040000fa
:0402ac00560f0000e9
:020000040000fa
:0402b000560f0000e5
:020000040000fa
:0402b400560f0000e1
:020000040000fa
:0402b800560f0000dd
:020000040000fa
:0402bc00560f0000d9
:020000040000fa
:0402c000560f0000d5
:020000040000fa
:0402c400560f0000d1
:020000040000fa
:0402c800560f0000cd
:020000040000fa
:0402cc00560f0000c9
:020000040000fa
:0402d000560f0000c5
:020000040000fa
:0402d400560f0000c1
:020000040000fa
:0402d800560f0000bd
:020000040000fa
:0402dc00560f0000b9
:020000040000fa
:0402e000560f0000b5
:020000040000fa
:0402e400560f0000b1
:020000040000fa
:0402e800560f0000ad
:020000040000fa
:0402ec00560f0000a9
:020000040000fa
:0402f000560f0000a5
:020000040000fa
:0402f400560f0000a1
:020000040000fa
:0402f800560f00009d
:020000040000fa
:0402fc00560f000099
:020000040000fa
:04030000560f000094
:020000040000fa
:04030400560f000090
:020000040000fa
:04030800560f00008c
:020000040000fa
:04030c00560f000088
:020000040000fa
:04031000560f000084
:020000040000fa
:04031400560f000080
:020000040000fa
:04031800560f00007c
:020000040000fa
:04031c00560f000078
:020000040000fa
:04032000560f000074
:020000040000fa
:04032400560f000070
:020000040000fa
:04032800560f00006c
:020000040000fa
:04032c00560f000068
:020000040000fa
:04033000560f000064
:020000040000fa
:04033400560f000060
:020000040000fa
:04033800560f00005c
:020000040000fa
:04033c00560f000058
:020000040000fa
:04034000560f000054
:020000040000fa
:04034400560f000050
:020000040000fa
:04034800560f00004c
:020000040000fa
:04034c00560f000048
:020000040000fa
:04035000560f000044
:020000040000fa
:04035400560f000040
:020000040000fa
:04035800560f00003c
:020000040000fa
:04035c00560f000038
:020000040000fa
:04036000560f000034
:020000040000fa
:04036400560f000030
:020000040000fa
:04036800560f00002c
:020000040000fa
:04036c00560f000028
:020000040000fa
:04037000560f000024
:020000040000fa
:04037400560f000020
:020000040000fa
:04037800560f00001c
:020000040000fa
:04037c00560f000018
:020000040000fa
:04038000560f000014
:020000040000fa
:04038400560f000010
:020000040000fa
:04038800560f00000c
:020000040000fa
:04038c00560f000008
:020000040000fa
:04039000560f000004
:020000040000fa
:04039400560f000000
:020000040000fa
:04039800560f0000fc
:020000040000fa
:04039c00560f0000f8
:020000040000fa
:0403a000560f0000f4
:020000040000fa
:0403a400560f0000f0
:020000040000fa
:0403a800560f0000ec
:020000040000fa
:0403ac00560f0000e8
:020000040000fa
:0403b000560f0000e4
:020000040000fa
:0403b400560f0000e0
:020000040000fa
:0403b800560f0000dc
:020000040000fa
:0403bc00560f0000d8
:020000040000fa
:0403c000560f0000d4
:020000040000fa
:0403c400560f0000d0
:020000040000fa
:0403c800560f0000cc
:020000040000fa
:0403cc00560f0000c8
:020000040000fa
:0403d000560f0000c4
:020000040000fa
:0403d400560f0000c0
:020000040000fa
:0403d800560f0000bc
:020000040000fa
:0403dc00560f0000b8
:020000040000fa
:0403e000560f0000b4
:020000040000fa
:0403e400560f0000b0
:020000040000fa
:0403e800560f0000ac
:020000040000fa
:0403ec00560f0000a8
:020000040000fa
:10040000cf8b20000eff20000e01880000000000ae
:10041000000020000000e000020032000001200087
:10042000200288000c000700e0ef210001002000fe
:100430001f000700000020000000e0000200320062
:100440000000020000000000361e02000000000054
:100450000040da000000fe004440a900600f2000c8
:100460000000e0000300320000002000a00188002e
:100470004440a80000000600f03fb1000180b10038
:1004800006003500ee03090000000000403fb10007
:100490000180b100fbff3d001000b000203fb00024
:1004a0000200350000800900000000000000060086
:1004b00091018800800078000000eb0015003700f3
:1004c000e280400032a0b4009101ba00e280400016
:1004d00032a0b4009102ba00e280400032a0b40021
:1004e0000002eb00472bde00f507b200602ce100b4
:1004f00004003a000059eb008301e900fdff3e00d3
:10050000040037006128e100010032000082eb00a6
:100510000b00070011c3ba001101ba000604e00085
:1005200003003a000200e000e5ff3a000000060088
:10053000f607b2009601880082007800f5ff3700c8
:100540003159ba008301e9000c0032002159ba0088
:100550008301e900080032000400e00003003a00d3
:10056000e280400032a0b400f5ff370011d9ba0094
:100570008301e900faff3a008100e800e1804000d1
:1005800032a0b400000006003600f800809fbe00d4
:10059000829fbe00849fbe00869fbe00011980001e
:1005a0008100d100401f2000808f500007003600de
:1005b0002324a8002304a800cca2a8008081200046
:1005c0001010a00091c0a9003a0037000119800066
:1005d0008100d10040802000908f5000070036003d
:1005e0002324a8002304a800cca2a8007400400083
:1005f0001020a00091c0a9002e0037000119800032
:100600008100d1000082200090804000c03f200087
:10061000808f50000c0036002324a8002304a8007b
:10062000cca2a8004324a8004304a800cca2a800a0
:10063000808120001010a000208320001010a00056
:1006400091c0a9001b0037002003d500304088006e
:100650002203d500704088002203d5004040880066
:1006600080812000100078006100600010003200de
:10067000a0802000b50d0700800078000100780000
:1006800082742100828f5000020034000200780042
:100690000400370032062000828f500001003c0029
:1006a00040062000702188002e04f8002604f9007e
:1006b00091c0a9004f03be004f02be004f01be0013
:1006c0004f00be003600f900004006003600f8007a
:1006d000809fbe00829fbe00849fbe00869fbe009a
:1006e000211980008100d100401f2000808f500020
:1006f000070036004324a8004304a800cca2a800a9
:10070000208320001010a00091e0a9003a003700db
:10071000211980008100d100e0812000908f5000dd
:10072000070036004324a8004304a800cca2a80078
:10073000740040001020a00091e0a9002e003700b6
:10074000211980008100d10060802000908040004d
:10075000c03f2000808f50000c0036002324a800ea
:100760002304a800cca2a8004324a8004304a800a6
:10077000cca2a800808120001010a00020832000bf
:100780001010a00091e0a9001b0037002403d50041
:10079000004188002603d500404188002603d5008b
:1007a0001041880020832000100078006100600064
:1007b0001000320040822000640d070080007800a5
:1007c0000100780082742100828f50000200340002
:1007d000020078000400370032062000828f5000ab
:1007e00001003c0040062000702288004e04f80002
:1007f0004604f90091e0a9004f03be004f02be007d
:100800004f01be004f00be003600f9000040060058
:10081000809fbe00411980008100d100c03f2000b0
:10082000808f500005003600cde2a800cca2a800c1
:10083000c08420001010a00025003700411980005e
:100840008100d10080832000908f50000600360088
:10085000cde2a800cca2a800740040001020a000a7
:100860009200a9001a003700511980008100d100c0
:10087000c03f2000808f500005003600cde2a80068
:10088000cca2a800608620001010a0001000370045
:10089000511980008100d10020852000908f5000e8
:1008a00006003600cde2a800cca2a80074004000eb
:1008b0001020a0009200a900050037002a03d500ef
:1008c000a04288002803d500d04188009200a900ea
:1008d0004f00be0000400600801f78002c03d500aa
:1008e000e04188002e03d500b04288009220a90084
:1008f0004f00780000400600208120000008eb0037
:100900003010780066004000900078000110a100cf
:100910000120a10069887000cca2a9002324a900ad
:100920002304a90000000600c08220000008eb009c
:100930003010780066004000900078000110a1009f
:100940000120a10069887000cca2a9004324a9005d
:100950004304a90000000600c084200010017800b4
:100960000210a10061862000910178000310a1000f
:100970000220a1000320a1000330a000830878001a
:100980000230a00002087800cde2a900cca2a900a4
:10099000000006002324a8002304a8008081200072
:1009a00061ff2f0010886000000006004324a800ab
:1009b0004304a8002083200061ff2f0010886000fe
:1009c00000000600cde2a800608620001030a100e3
:1009d000c08420001030a100000006008000eb0061
:1009e0005b060700b21c2a0053f8230083050700aa
:1009f0001205280013e223008005070056060700b1
:100a000020408800421f2000800f5100020031006a
:100a10000200780020408800000006008000eb0003
:100a20004b060700b21c2a0053f823007305070089
:100a30001205280013e22300700507004606070090
:100a4000f0408800421f2000800f5100020031005a
:100a500002007800f0408800000006008000eb00f3
:100a60003b060700223128008304240063050700a9
:100a70001205280013e22300600507003606070070
:100a8000c0418800c23f2000800f510002003100a9
:100a900002007800c0418800000006008000eb00e2
:100aa0002b060700f2fd2400530d24005305070018
:100ab0001205280013e22300500507002606070050
:100ac00090428800c23f2000800f51000200310098
:100ad000020078009042880000000600e687470088
:100ae000889fbe008a9fbe008c9fbe008e1f78002c
:100af000000778000000eb000200e0000b0032006d
:100b0000910f570009003600e481400004003700cf
:100b100013027800e48141008e0f5200030031007f
:100b20000000e800800f5100f9ff3e004204dd00a4
:100b3000088440001801780082bf9f008e0f51008a
:100b400003003a0018009000000041002700370021
:100b50000000e9004200dd00808040009104900028
:100b600091007800f1b79f006148b9005705070070
:100b70000006be00ffb09700010057008000eb00a8
:100b8000f30507000005be001800900009005000a2
:100b9000cf80de004d0507000004be000fb99700ae
:100ba000ffb1970003005100cf80de00470507002a
:100bb0000001be000800be00ce0407000001be0018
:100bc0000a00be000d0507000001be000c00be00bb
:100bd000420507000200200003f023003f05070044
:100be000f8050700dc050700000047004f07780004
:100bf0004f06be004f05be004f04be006f00b1009f
:100c0000000006006201200021462900b3ff070012
:100c10000000060062012000a14b2900afff070081
:100c2000000006008000eb00c905070002442a000e
:100c3000f3dd2300f10407001205280013e223006e
:100c4000ee040700c4050700f2ff0700a1822000a0
:100c5000e408500000000000688040001040a00040
:100c6000000006008000eb00b905070002442a00de
:100c7000f3dd2300e10407001205280013e223003e
:100c8000de040700b4050700e2ff0700804088008b
:100c9000808120001040a00000000600c062a80073
:100ca000c002d40070006000f1fe2f000216800028
:100cb0008280600081007000011688002184a900f4
:100cc0002164a8002144a9002124a8002104a9002e
:100cd000f0f32f002024b6002044a9002024a9000e
:100ce0002004a900c05d20009021880080bb200066
:100cf000b021880034e4a90000fc2f003404b600c1
:100d00000000a000a0218800a021800000c0a00059
:100d100000d0a10000e0a10000f0a100a021880007
:100d200023e4a90023c4a90023a4a9002384a900c3
:100d3000f03f2f002224b6002224a9002204a9009b
:100d400080882100402188000040800070218800b8
:100d50002e04f8002604f90010408000502188007d
:100d60006021880000000600c9c2a800401680006b
:100d70004e00de00610060004d00dd00f1ff2d003f
:100d80004216800082806000810070004116880059
:100d90004184a9004164a8004144a9004124a8005d
:100da0004104a900f0f32f004024b6004044a900fc
:100db0004024a9004004a900c05d200090228800c2
:100dc00080bb2000b022880054e4a90000fc2f0062
:100dd0005424b600a022800000c0a00000d0a100d2
:100de00000e0a10000f0a100a022880043e4a900d7
:100df00043c4a90043a4a9004384a900f03f2f00e5
:100e00004224b6004224a9004204a900808821009f
:100e100040228800d0408000702288004e04f800f4
:100e20004604f900e04080005022880060228800db
:100e30000000060001e3a90001a3a9000183a800a6
:100e40000103a90000e3a90000c3a90000a3a900b1
:100e50000083a900001880000000a0000010a1007d
:100e60000020a000001888000de3a800f10f2e005c
:100e7000601880000081600000f020000200700017
:100e8000601888000ce3a80000fe2f0063188000a3
:100e900003016000e200b300621888000be3a800c1
:100ea0005218800082806000025020000101710011
:100eb000521888000ae3a9000a03b6000020a00027
:100ec0005018880002a3ef000203a9000223a90022
:100ed0000243a9000263a9000283a90002a3a9009a
:100ee00002c3a90002e3a900d00680000030b300cd
:100ef00000a0a000d0068800d006800000c0a1009d
:100f000000d0a00000e0a000d0068800e00680002d
:100f10000000a0000010a1000020a000e006880052
:100f2000f0fc2f00dc00b6000060a000e0068800a6
:100f30009220a9009200a90091e0a90091c0a90007
:100f4000a1c0a800a1e0a800a200a800a220a800bb
:100f500001e3a800001920000100200046fd070061
:100f600000000600889fbe000004780082447800dc
:100f700008407800180307004840de0089407800e8
:100f8000150307004f04be0000000600808120000a
:100f900010007800700060000700320012c0b3003b
:100fa0008040eb0080408000eeff07008081200041
:100fb0001040a1000a0037002083200010007800b4
:100fc000700060000600320032c0b30021c0b300e0
:100fd00080408000e3ff0700808120001040a100d6
:100fe000000006000200fa00889fbe00004478005e
:100ff00001407800e68057002e0307008000eb00d8
:101000000000e0000f003400affc9700e6805700be
:1010100008407800270307008000eb000000e00094
:1010200008003400c848dd002ff997000280fb005b
:1010300080804000f03f2000808f5000010036008b
:1010400080007800010078004f04be000080fa00a4
:1010500000000600889fbe008a9fbe008c9fbe00d5
:101060008e1f7800c8a2a900cca2a900c902a900bd
:10107000cd02a9006000b80090408800a14088001f
:10108000ca1220005a4088006bfe20006b40880086
:1010900029002000b94088000004eb007840880057
:1010a00011c0b3000040eb00ceff07008040880075
:1010b0008c0c20000c408800cd0e20001d408800c4
:1010c000384088004e1f20002e408800808120007c
:1010d0001000a100484088006000b800604188000e
:1010e000714188002a4188003b418800894188007d
:1010f0004841880031c0b30009407800b9ff0700bb
:1011000050418800dc408800ed408800084188009c
:10111000fe408800208320001000a00018418800b5
:10112000d8418800c03f2000c04188001842880094
:10113000a842880090428800e842880001e4a900a3
:1011400001a4a9000164a9000144a9000124a90087
:101150000104a90000e4a90080ff2f000224b600ca
:10116000f0f32f002224b6004224b6002324a80066
:101170002304a8004324a8004304a8002dff07006f
:10118000c6fe0700f8fe070001e4a8002324a9001a
:101190002304a9004324a9004304a90000fa200065
:1011a00001002000b4fc070023e4a80023c4a80029
:1011b00043e4a80043c4a8000000eb0099fe070028
:1011c000e5fd0700c9e2a900cd02a8004f0778009d
:1011d0004f06be004f05be004f04be0000000600d3
:1011e000801f780020a1270010088800c0458000db
:1011f0000000e800c0458800c0458000e30f5000b3
:1012000004003a000000eb00c045880010002000f8
:10121000b04588008460a9004f00780000400600b7
:1012200000017800020fb2004411de006a11b9001b
:101230006f00600002004000000006000080fb001c
:10124000a2002000110009000280d8004300200005
:101250000300dd000140400000000600ef41600097
:101260000081fb000268a3000a0032008048eb0006
:101270000042b200904098000248a30003003200f0
:10128000eac14100a340980009003700a34098003c
:101290000700370010c0b300804878000203b20096
:1012a0004411de006a12b90004c14100a240980056
:1012b00000000600889fbe008a9fbe0000057800df
:1012c0000b0024000819200009002000040037004a
:1012d0000800be0068fc07000a05e9000e003200a5
:1012e0000602ab00faff3a000642ab00f8ff3a00f4
:1012f0000662ab00f6ff3a000622ab00f4ff3a00ac
:101300000682ab00f2ff3a004110800001806500c8
:10131000efff3a00010037000080eb004f05be00f0
:101320004f04be0000000600b04580000000e00051
:10133000020032000000eb00b0458800000006000b
:1013400006c2a8000722a90007e2a8009018200002
:101350002010880000000600881f78000004780034
:101360000080eb00514580000100e0005000320099
:101370002705070000712200ceff070080007800db
:101380000080eb000100e0004900350000cdb30013
:101390002105070000712200c6ff070080007800c9
:1013a0000080eb000100e000410035000040eb0050
:1013b0001905070000712200beff070080007800b9
:1013c0000080eb000100e000390035002005070037
:1013d00000712200b7ff0700800078000080eb005a
:1013e0000100e0003200350010cdb3000a0507000f
:1013f00000712200afff0700800078000080eb0042
:101400000100e0002a003500130507000074a10068
:1014100083ff070040449800150507000071220073
:10142000a4ff0700800078000080eb000100e000ce
:101430001f0035000805070079ff070030449800b9
:101440000b050700007122009aff0700800078005a
:101450000080eb000100e00015003500fe040700ed
:10146000880078007dff0700040507000071220056
:1014700090ff0700800078000080eb000100e00092
:101480000b003500000507000071220089ff0700ee
:10149000800078000080eb000100e00004003500cf
:1014a000800c200001002000f3fb07000000eb008f
:1014b0004f04780000000600881f780000047800c0
:1014c0000080eb00514580000100e0005800320030
:1014d000cf0407000071220076ff0700800078002b
:1014e0000080eb000100e0005100350000cdb300aa
:1014f000c9040700007122006eff07008000780019
:101500000080eb000100e0004900350030c0b3006e
:10151000c10407000071220066ff07008000780008
:101520000080eb000100e00041003500c804070026
:10153000007122005fff0700800078000080eb0050
:101540000100e0003a00350010cdb300b2040700fe
:101550000071220057ff0700800078000080eb0038
:101560000100e00032003500bb0407005044980041
:10157000bf040700007122004eff070080007800c2
:101580000080eb000100e00029003500b2040700f4
:1015900023ff070060449800b50407000071220093
:1015a00044ff0700800078000080eb000100e000ad
:1015b0001f003500a804070019ff070070449800b9
:1015c000ab040700007122003aff0700800078009a
:1015d0000080eb000100e000150035009e040700cc
:1015e0000fff0700004c9800a404070000712200c0
:1015f00030ff0700800078000080eb000100e00071
:101600000b003500a00407000071220029ff07002d
:10161000800078000080eb000100e000040035004d
:10162000800c20000100200093fb07000000eb006d
:101630004f04780000000600881f78000000eb00cf
:1016400050458800b0458800c045880020a127008b
:10165000100888002005800000c0a00000d0a10074
:1016600000e0a100200588008460a9009460a80023
:10167000200880000003b300200888000421a9008e
:1016800005e1a800c08a200033ff07008000780031
:10169000e0ff2f000100e0006e003500c08a20004e
:1016a00085ff070080007800d0ff2f000100e000d8
:1016b000680035005604070000712200fdfe070097
:1016c000800078000080eb000100e0006100350040
:1016d00000cdb3005004070000712200f5fe0700a2
:1016e000800078000080eb000100e0005900350028
:1016f0000040eb004804070000712200edfe0700e7
:10170000800078000080eb000100e000510035000f
:101710004f04070000712200e6fe070080007800f9
:101720000080eb000100e0004a00350010cdb3005e
:101730003904070000712200defe070080007800f7
:101740000080eb000100e000420035004204070089
:10175000004478004904070000712200d5fe07000c
:10176000800078000080eb000100e00039003500c7
:101770004504070000712200cefe070080007800bb
:101780000080eb000100e00032003500800c2000fa
:101790000100200038fb07000804e0002a003d009b
:1017a0001b04070000712200c2fe070080007800c1
:1017b0000080eb000100e0002600350000cdb30002
:1017c000150407000044780000712200b9fe0700ec
:1017d000800078000080eb000100e0001d00350073
:1017e0000040eb000c04070000712200b1fe07006e
:1017f000800078000080eb000100e000150035005b
:10180000084078000404070000712200a9fe0700c8
:10181000800078000080eb000100e0000d00350042
:101820001904070000712200a2fe07008000780062
:101830000080eb000100e00006003500800c200075
:10184000010020000cfb070010002000504588001c
:101850000000eb004f04780000000600889fbe00e7
:101860008a9fbe00004478008144780002457800d9
:10187000834578000080eb00514580000100e000c6
:101880006a003200e74f540003003e000804e00005
:10189000030032000300370078c0b30001003700b6
:1018a00018c0b300ffcf540003003e000904e0005d
:1018b0000300320003003700f9c1b3000100370014
:1018c00019c0b300ec4f550003003e000a04e000cd
:1018d0000300320003003700cac0b3000100370024
:1018e0001ac0b300ca0307000071220071fe07008e
:1018f000800078000080eb000100e0004b00350024
:1019000000cdb300c40307000071220069fe070088
:10191000800078000080eb000100e000430035000b
:1019200030c0b300bc0307000071220061fe070055
:10193000800078000080eb000100e0003b003500f3
:10194000084078003dfe0700b30307000071220045
:1019500058fe0700800078000080eb000100e000e6
:10196000320035000940780034fe0700aa03070062
:10197000007122004ffe0700800078000080eb001d
:101980000100e000290035000a4078002bfe070026
:10199000a10307000071220046fe070080007800c6
:1019a0000080eb000100e0002000350030c6b300ed
:1019b00080cf550001003600804578000b4078004c
:1019c0001efe0700940307000071220039fe070085
:1019d000800078000080eb000100e000130035007b
:1019e000a90307000071220032fe07008000780082
:1019f0000080eb000100e0000c003500800c2000ae
:101a0000010020009cfa0700108b20000848780095
:101a10000000e800094878000000e8000a48780063
:101a20000000e8000b4878000000eb004f05be0006
:101a30004f04be0000000600889fbe008a9fbe00c3
:101a40008c9fbe00004678000145780082447800f3
:101a500083457800044478000080eb005145800005
:101a60000100e000580032000804e00004003200e9
:101a7000f74f5600050036007cc1b3000300370065
:101a8000ec4f560001003600ccc0b30060030700e5
:101a90000071220007fe0700800078000080eb0044
:101aa0000100e0004800350000cdb3005a030700f4
:101ab0008046780000712200fefd0700800078005b
:101ac0000080eb000100e0003f0035000040eb002b
:101ad0005103070000712200f6fd07008000780026
:101ae0000080eb000100e00037003500b0c3b30018
:101af00080cf54000100360080447800094078000f
:101b0000cefd07004403070000712200e9fd070035
:101b1000800078000080eb000100e0002a00350022
:101b2000b0c3b300804f5500010036000045780077
:101b30000a407800c1fd070037030700007122004a
:101b4000dcfd0700800078000080eb000100e00071
:101b50001d0035000d4078002f03070000712200a2
:101b6000d4fd0700800078000080eb000100e00059
:101b7000150035004403070000712200cdfd070069
:101b8000800078000080eb000100e0000e003500ce
:101b9000800c20000100200037fa0700c08a2000d6
:101ba000084878000000e8000b4878000000e800d2
:101bb0000c4878000000e8000a4878000000e800bf
:101bc000094878000000eb004f06be004f05be003c
:101bd0004f04be0000000600889fbe0080447800cd
:101be000014478000080eb00514580000100e000d6
:101bf0002e0032000603070000712200adfd070031
:101c0000800078000080eb000100e0002700350034
:101c100000cdb3000003070000712200a5fd0700fe
:101c2000800078000080eb000100e0001f0035001c
:101c300070c3b300804f54000100360000447800a8
:101c400068404400f40207000071220099fd07007b
:101c5000800078000080eb000100e00013003500f8
:101c600009407800ec0207000071220091fd070096
:101c7000800078000080eb000100e0000b003500e0
:101c800001030700007122008afd07008000780030
:101c90000080eb000100e00004003500800c200013
:101ca00001002000f4f907000000eb004f04be0023
:101cb00000000600889fbe00804478000104780080
:101cc0000080eb00514580000100e0003f00320041
:101cd000cf0207000071220076fd07008000780027
:101ce0000080eb000100e0003800350000cdb300bb
:101cf000c9020700007122006efd07008000780015
:101d00000080eb000100e0003000350070c3b3003c
:101d100080cf5400010036008044780068c0440041
:101d2000bd0207000071220062fd070080007800fc
:101d30000080eb000100e00024003500c402070031
:101d4000007122005bfd0700800078000080eb003e
:101d50000100e0001d00350010cdb300ae02070009
:101d60000071220053fd0700800078000080eb0026
:101d70000100e00015003500b7020700804478003c
:101d8000be020700007122004afd070080007800b3
:101d90000080eb000100e0000c003500ba020700f3
:101da0000071220043fd0700800078000080eb00f6
:101db0000100e00005003500800c2000010020003b
:101dc000adf90700094c78000000eb004f04be009d
:101dd00000000600889fbe0000047800814478005f
:101de000e08a200091c0b30090cf100002003e00b6
:101df00000c3b300004c78000801e800e08a20002e
:101e00001080fb008000eb006a030700a0c3b30052
:101e100020449800f08a200010407800e94f5000dc
:101e200008003e0000c3b300304498006401440041
:101e3000f08a20001080fb008000eb005d030700ab
:101e400004003700630144000080fb008000eb00c9
:101e5000580307000904e00012003200a0c3b300d9
:101e600050449800008b200010407800e94f50004b
:101e700008003e0000c3b3006044980067014400be
:101e8000008b20001080fb008000eb00490307005e
:101e900004003700660144000080fb008000eb0076
:101ea000440307004f04be00000006000040da00b3
:101eb0000000fe0080007800010178003104e0009d
:101ec000fdff3a000000510000000600000178000c
:101ed000820178003204e000fdff3a00030178003f
:101ee000b1417800035978000304e000fcff3a0098
:101ef00000000600889fbe008a9fbe008c1f7800ed
:101f0000380107003f01330003866c006450e10094
:101f10002e0032006420e100330032006150e10005
:101f20002f0032006120e10031003200858555002c
:101f3000eb07b0000900200008042000050037006e
:101f40000804440089844c000a0031000603430061
:101f500087834b000001530081815b00f8ff330051
:101f60000203be000800a0000804440089844c005d
:101f7000f6ff3900c639dd0083017300010032002d
:101f8000130020008904d1000884d3000998a3001d
:101f9000050032000800a7000300a0008904d1005a
:101fa0000884d3008b05e8008904d1000884d3009d
:101fb0000001eb000281d2002201070001f0a10024
:101fc0000cf0a70001f0a000170137006420e10029
:101fd000190132000801be000200be00f7ff370001
:101fe0006120e100140132006000b800f3ff370007
:101ff0000000200001f82700f0ff3700889fbe0096
:102000008a9fbe008c1f7800f6000700fd00330099
:1020100003866c006450e100240032006420e1007b
:10202000270032006150e100220032006120e1000f
:10203000210032008b854200eb07b1000134b8006b
:10204000003ab8000804420089844a00013ab80006
:102050000030b8008880400009014a0004003300c5
:102060000000400081804800020149008b05e90022
:10207000c909dd0083017000010032001300200057
:10208000c814de004814dd004709de001200b2006b
:10209000c808de0008847000ea00070001f0a10013
:1020a0000cf0a70001f0a000df0037006120e10084
:1020b000e10032000801be000200be00f7ff370059
:1020c0006150e100fcff3a00db0037004f89de0081
:1020d000820178000101370003f0a200889fbe0052
:1020e0008a9fbe008c1f7800be000700c500330029
:1020f0006450e1004f0032006420e10052003200e1
:1021000003826c0007003b000905d0000306d000e5
:10211000820f54000c065d000200390002003200fc
:1021200089017800030678008582550004003d008f
:102130000003fd008103fd008502ea008b8542005b
:10214000840f720002003b0060001000e080180065
:102150006011b8000005eb007a28e1000a003900a0
:1021600006007800c75ddd00f707b20087807500c4
:102170002d003700828171000a017800610560003e
:102180008180d1000080d3008502e900f9ff3b0087
:10219000060440008784480002003b0060041400ed
:1021a000e0841c000988a300070032008a817100c6
:1021b00082817100610164008904d1000884d30028
:1021c0008b05e800170037000978a30013003a00d8
:1021d0000b00e000130034008b05e9000804440004
:1021e00089844c000a4474000978a3000d003a0069
:1021f0000b00e000070034008b05e90008044400f0
:1022000089844c0001003a000b0020000978a300eb
:10221000f7ff32000001eb000200370082817100fd
:102220000a017800870007000cf0a70001f0a00069
:102230007d0037006420e10002003a00838f6c00cb
:102240007d0033000801be000200be0076003700aa
:10225000839f68000100e00002003d006000100064
:10226000e08018000300e00002003d006001110062
:10227000e0811900a90007004f00e00002003b00c8
:1022800060001000e080180000000600809fbe0083
:10229000821f78000001eb00b0000700cf02780039
:1022a000808abe000001be004f00be008aff3a00d7
:1022b0000470a6006000b80003f0a70001f0a000c1
:1022c0000000060014002000cb0037000001be0013
:1022d000e40007000470a70003f0a1006509b10045
:1022e000160032000d0035006828e10006003500b8
:1022f000f0ff2f00f1ff27000300e00013003b0078
:102300000100280000000500000040008180480016
:102310008502e900fcff3a0008003700f88f420010
:1023200002003c008000eb00000005008100d100ad
:102330000080d3008502e800fcff3a000300e000c3
:1023400002003b0060001000e08018000000060062
:102350006011b800d80037000001be00c1000700be
:102360000470a70003f0a10003f8a30013003a00d3
:102370006509b10010003200090035006928e1004c
:1023800002003500010028000000050000004000a8
:10239000818048008502e900fcff3a000000060049
:1023a000f88f4200050035008100d1000080d30085
:1023b0008502e800fcff3a00000006008000eb0008
:1023c000000005000001eb0064000700040032007b
:1023d0000200200003f8230001f0a7003eff0700e1
:1023e000000006000004be009e0007000003be00bf
:1023f0000405be000200be009a000700844f75006d
:10240000000006000200be006450e1000500360036
:102410006420e100020036000968a30001003a00d0
:102420000800be000160a0004f0678004f05be0006
:102430004f04be0000000600f0ff2f00f1ff270050
:10244000f9ff370081002000618055000b003d003e
:102450000b00200061fe2f000100e1001d00340090
:1024600082817100610164008904d1000884d30075
:102470000000e800faff3a007100200061006400eb
:102480000300700002006000090032006104440093
:10249000e0844c000988a500050032008b05e800a7
:1024a0006808e10002003a008904d1000884d300e2
:1024b000f20f20000258e10005003d00c75ddd007d
:1024c000f907b20089807500080078000000060056
:1024d0000bf827008b00780000000500881f7800ab
:1024e000030478000300e00007003d0060001000d6
:1024f000e080180060011900e081190002003b0033
:1025000001f02d00030037006b00070008f0a70062
:1025100001f0a0004f047800000006006022b8001f
:10252000060220000000d0008180d2000482d20088
:102530008582d2000000a0000202520083825a006d
:10254000030031000202420083824a000000a10021
:102550000603e900f3ff3a0000000600889fbe0072
:102560008a9fbe000003be003e000700850578007c
:1025700082815200020020006220e10004003a0043
:10258000f307b100040035007718e10004003500be
:102590000600be00140037006000b8000f003700ce
:1025a000f50f2000faff2f008502d1000a85d30025
:1025b0008301e900fcff3b008184620000046500a8
:1025c000890f7400f2ff32008582ea000a85ea0072
:1025d00081846200000465009aff070007f0a700ed
:1025e00001f0a0000081eb000200e0004f05be00fa
:1025f0004f04be0000000600889fbe008a9fbe00f8
:10260000841f780077ff07004f0078001100330027
:10261000f0ff2f00838f6c0006003b00040565006f
:102620000a00a7000800370009f0a60010002000eb
:1026300008003700820f5400838f5c0003003900cc
:102640001000200001003e000000200009f0a7005b
:102650000000ea004f05be004f04be000000e0008d
:1026600000000600c70ade00f107b200f50fb20055
:1026700008003200e1cf4200020032000170a000e9
:1026800024000500810f70000100320004080500dd
:1026900044000500810f700002003a00140005009c
:1026a0008502e9000000400081c04800fcff3b00bb
:1026b0000170a00024000500889fbe008a9fbe0014
:1026c0000082700004027100048271002600320052
:1026d0000004be000200be006011b8006b092000bb
:1026e000950220000182cf000a0039000541b100a7
:1026f0000082cf00070039000541b1000982cf00f8
:10270000040039000541b1000882cf000100390002
:102710000541b10005425200120032000a003b00a0
:1027200082817100610164008100d1000080d300ca
:102730008984d3000884d3008b05e8000442e800b4
:10274000f7ff3a00070037000804440089844c0072
:1027500000004800818048008b05e9000442e90040
:10276000f9ff3a0037ff07004f05be004f04be00d7
:1027700000000600101180006140600000000600ab
:102780000011800066006000e60f500002003a0071
:10279000301180000000060030118000f00fb20000
:1027a0000000060001118000e6806000e68f500006
:1027b00001003200f00fb200201188000000060076
:1027c00001118000e6806000e68f50000c003a00a6
:1027d000030037002322ab00feff3a0021118800de
:1027e000b00078000100e000faff3a0000000600a7
:1027f0002322ab00feff3a008100fb00211188007c
:10280000b04078000104e000f9ff3a000000060043
:102810000602a800000006008040780000c0eb001f
:102820008180fb001110880008e2ab0007003a002d
:1028300009c2ab00feff3a00150007000040eb00a4
:102840000802e20001003d00e0cfb30000000600f6
:102850000622a800000006000662a8000662ab007f
:10286000feff3a0008c2a900001080000000060028
:1028700006a2a9000682a8000000060006a2a80081
:102880000682a800000006000642a800000006001c
:102890000602ab00feff3a000642ab00fcff3a0026
:1028a0000662ab00faff3a000622ab00f8ff3a00de
:1028b0000682ab00f6ff3a0009c2ab00f4ff3a0013
:0428c000000006000e
:020000040000fa
:1028c4000000000000000000150000001e000000d1
:1028d40027000000110000003a0000001b00000067
:1028e4004d000000240000005f0000001a000000fa
:1028f4007200000028000000840000003b0000007b
:10290400940000003f000000aa00000049000000fd
:10291400bc00000045000000d0000000450000009d
:10292400e300000049000000f60000004800000039
:1029340007010000450000001b01000044000000e6
:102944002e010000440000000f0100003f000000c1
:10295400540100003e000000670100003c0000003c
:102964007a01000036000000ff01000000000000b2
:10297400000000000000000012000000030000003e
:1029840023000000030000003400000003000000e6
:102994004500000002000000560000000200000094
:1029a4006600000002000000770000000200000042
:1029b40088000000020000009900000002000000ee
:1029c400aa00000002000000ba000000020000009b
:1029d400cb00000002000000dc0000000200000048
:1029e400ec00000001000000fe00000001000000f7
:1029f4000d010000010000001e010000ffff0000a7
:102a04002f0100000000000040010000ffff000053
:102a14005101000000000000ff010000ffff000062
:102a2400436f0000727400006f630000697200005d
:102a340063750000697400006f200000656e00007b
:102a44000a000000536900006e2000006572000057
:102a5400726f000072000000423100002c00000080
:102a6400423200002c000000355600002c0000000b
:102a7400332e0000335600002c000000436f00008a
:102a840072720000696500006e7400006520000029
:102a940073750000706500007261000064610000dd
:0c2aa4000a6500006e2000000000000029
:020000040000fa
:102ab000e6874700889fbe008a9fbe008c9fbe00ad
:102ac0008e1f7800d1c2b30090cf100004003a00ee
:102ad0000000e8000c0020000df82b000200370079
:102ae0000c0020000df82300904078006044b800ee
:102af0000104e00026003200000778000000eb002f
:102b0000f0b79f000a0020000b122400e2c2b300bd
:102b100082cf5000190032008100fb0000fd2f0021
:102b20000080400080bf9f00e90f500015003e006c
:102b30007fb197000200e000040032000a01be00ed
:102b40000c00be00ebfc07000006be000a01be0040
:102b50000800be0029fd07000004be000fb9970061
:102b60006110b90059fd07000001be000800be0059
:102b70005afd07000004be000200370010002000cc
:102b8000f0b79f00de4078000104e000dfff3a006c
:102b90000c01be000800be0018fd07004f077800ba
:102ba0004f06be004f05be004f04be006f00b100cf
:102bb00000000600e6874700889fbe008a9fbe008f
:102bc0008c9fbe008e1f78000005be0082bf9f0054
:102bd000e00f5000e08f580024003200ae002000cb
:102be0000000eb00f0b79f0008a02c00a9b923005b
:102bf000ac0020000d0020000801be000a00be004d
:102c000093fd0700e00f5000e08f580003003a00ea
:102c10007fb197000200e0000d0032008fb99700ed
:102c200002c3b3008259400083bf9f000889b900e6
:102c300000cab900020142000800b800810041004a
:102c40000005550081855d0013002000f3b79f004b
:102c50000e07e900090032000c01be000800be00aa
:102c60007bfd07000004be00e3ff370000c3b30094
:102c70008fb897008058780081bf9f000fb99700e8
:102c80000049eb004f0778004f06be004f05be001d
:102c90004f04be006f00b10000000600889fbe0018
:102ca0008a1f7800000178000105780010002000dc
:102cb000010020000a00e0000e0032008001eb005d
:102cc000e10f550002003a006110b9000900370019
:102cd0006112b900048bb90000acb90006014400d0
:102ce0000400b800810041008301e800830f550013
:102cf000f8ff3e004f0578004f04be0000000600bc
:102d0000f2874700889fbe008a9fbe008c9fbe004e
:102d10008e1f7800800478000202be000107780050
:102d2000768157000400be0058fd07000005be0074
:102d3000e30f5700010036003e00200072712b00a7
:102d4000138d23000a00be005efd07000000e000b6
:102d50004e0035005fb09700efb097005bfd0700b5
:102d60000006be008e007800a0002000cbff070008
:102d700077fd07000001be000a00be009ffc0700af
:102d800075fd0700f0b79f0081bf9f000200200083
:102d9000a34724000a00be0098fc07006efd070050
:102da000380020000000e000110032000200200086
:102db000832c24000a00be0090fc070066fd07007b
:102dc000280020000000e00009003200020020007e
:102dd000031224000a00be0088fc07005efd070005
:102de00000f0a7000000ea000004e9004f44de0004
:102df000090178000c00be006eff07000e00e00025
:102e000032003200080578008e0f550001003600b0
:102e10000e0578000900780026fc070000804400b9
:102e2000e1c2b300014878008040eb0011409800f7
:102e30000a00e0000b0032000004eb000cc3b300fa
:102e400081457800090078001afc070000804400e2
:102e50000c4878001b4098000804e8008a0f5400d2
:102e6000f8ff39008e0f5500180031007e815700a1
:102e70007fb097008fb897004eff0700fe80570085
:102e80000900780011fc0700100037005fb09700c0
:102e9000efb097000dfd07000006be008e00780021
:102ea000a00020007dff070029fd070072712b00a4
:102eb000138d230051fc070027fd0700f0b79f008a
:102ec00081bf9f0038002000c9ff37004f077800fe
:102ed0004f06be004f05be004f04be002f01b100db
:102ee000000006002182a9002162a800f0cf2f0077
:102ef0002022b60020c2a90020a2a9002082a90099
:102f000090ff2f002022b6002002a9002062a80016
:102f10006005200040118800f0f32f002222b60047
:102f200023c2a9002362a9002222b6002342a800de
:102f300021e2a8002342a800000006002222ab00e4
:102f4000010032002222a9000afe07000004e0006e
:102f5000fdff32000afe070000000600889fbe0049
:102f60008a9fbe00800478000004eb00aa8620003f
:102f70001b0320000500370000192000010020007d
:102f80003df507008904e9000b003200f9fd070058
:102f90000004e000f8ff3200f9fd070000757c0036
:102fa0008b0f5400060032000004e00006003200df
:102fb0000804e800f5ff37000080eb00030037004d
:102fc000e0ff2f00010037000000eb004f05be00be
:102fd0004f04be0000000600889fbe000081eb0089
:102fe0008081eb0002004000e08049005202200096
:102ff000820f5000e08f58000f033e000060010078
:103000002500370033003700490037005f003700e4
:103010006f0037000803370084003700b400370022
:10302000c6003700d8003700ea00370096003700a6
:103030009a003700a1003700a5003700f8003700dc
:103040003a0137000d0137004e0137007e0137008d
:1030500087013700b5013700c3013700d1013700c0
:10306000df013700ed013700f0013700f3013700d1
:10307000f6013700f9013700fc0137006c01370019
:10308000fe013700c0023700d5023700ea023700e0
:10309000830137009501370060002000c1fd070063
:1030a00000712200adff0700404388000000e000ef
:1030b000e3023a00a08620007dfe07000200200007
:1030c000a3472400cdfb0700a3fc0700e5f607009b
:1030d000db02370060002000b2fd070040408000a6
:1030e000ccf607008000eb0099fc0700b2402c00f2
:1030f000f3bc2300c1fb0700e0448800f1448800d2
:1031000002442a00f3dd23007afb07000001be0021
:1031100021002000a0862000f9fe0700a0862000e4
:10312000a7fd07000000eb009efd0700c40237006a
:10313000600020009bfd070030408000b1f60700d2
:103140008000eb0082fc0700b2402c00f3bc23009f
:10315000aafb0700b21c2a0053f8230065fb0700f6
:103160000001be00e0448800f144880021002000f6
:10317000a0862000e2fe0700a086200090fd070048
:103180000000eb0087fd0700ad02370000000000e3
:103190006000200083fd0700007122006fff070020
:1031a000404388000000e000a5023a000000000053
:1031b000a08620003efe070002002000a347240056
:1031c0008efb070064fc070096f607009c023700a0
:1031d0006000200073fd0700104180008df607009d
:1031e0008000eb005afc0700b2402c00f3bc230027
:1031f00082fb0700e0448800f144880002442a0072
:10320000f3dd23003bfb07000001be00210020008e
:10321000a0862000bafe0700a086200068fd0700f7
:103220000000eb005ffd0700850237006000200012
:103230005cfd07000041800072f607008000eb0093
:1032400043fc0700b2402c00f3bc23006bfb0700db
:10325000b21c2a0053f8230026fb07000001be0021
:10326000e0448800f144880021002000a08620006e
:10327000a3fe0700a086200051fd07000000eb0020
:1032800048fd07006e0237006000200045fd070082
:10329000808120001000a10069023700600020003a
:1032a00040fd0700208120000008eb00301078006e
:1032b000660040001000a00061023700600020009e
:1032c00038fd0700208320001000a1005c023700b9
:1032d0006000200033fd0700c08220000008eb00e2
:1032e00030107800660040001000a0005402370043
:1032f000600020002bfd0700808120001000a1004d
:103300000071220015ff0700404388000000e00024
:1033100004003a00a0862000e5fd0700ebfb070053
:1033200050408800208120000008eb003010780019
:10333000660040001000a00041023700600020003d
:1033400018fd0700808120001000a10000712200fc
:1033500002ff0700404388000000e00004003a003c
:10336000a0862000d2fd0700d8fb0700604088003f
:10337000208120000008eb0030107800660040003b
:103380001000a0002e0237006000200005fd07009d
:10339000208320001000a10000712200effe070032
:1033a000404388000000e00004003a00a0862000ae
:1033b000bffd0700c5fb070020418800c082200038
:1033c0000008eb0030107800660040001000a000fc
:1033d0001b02370060002000f2fc07002083200061
:1033e0001000a10000712200dcfe070040438800ad
:1033f0000000e00004003a00a0862000acfd0700b9
:10340000b2fb070030418800c08220000008eb00ba
:1034100030107800660040001000a000080237005d
:103420000000000060002000defc0700e04180009a
:103430008000eb00c6fb0700b2402c00f3bc230069
:10344000eefa0700e0448800f14488003289210048
:1034500043f22300a7fa07000001be00210020006c
:10346000a086200026fe0700a0862000d4fc0700ce
:103470000000eb00cbfc0700f101370060002000ea
:10348000c8fc0700d0418000def507008000eb009b
:10349000affb070032572e00a30c2400d7fa070019
:1034a000e0448800f144880022312800830424008d
:1034b00090fa0700a8fb0700004588000000000004
:1034c000723e2000800f510002003100020078009f
:1034d00000458800004580008000eb00a2862000a7
:1034e000b4fd0700e0022000aefc0700300620001b
:1034f00001458000808f500002003e000003200044
:10350000a8fc070000458000e90f500002003e00c3
:1035100000032000a3fc0700a0862000a8fc0700f1
:103520000000eb009ffc0700c50137006000200091
:103530009cfc0700b04280008000eb0084fb070089
:10354000b2402c00f3bc2300acfa0700e044880032
:10355000f144880092432b0083f6230065fa0700ac
:103560000001be0021002000a0862000e4fd07002d
:10357000a086200092fc07000000eb0089fc0700f9
:10358000af0137006000200086fc0700a0428000e9
:103590009cf507008000eb006dfb070032572e0002
:1035a000a30c240095fa0700e0448800f144880049
:1035b000f2fd2400530d24004efa070066fb0700bd
:1035c00000458800723e2000800f5100020031004b
:1035d0000200780000458800004580008000eb0074
:1035e000a286200073fd0700e00220006dfc0700aa
:1035f0003006200001458000808f500002003e0010
:103600000003200067fc070000458000e90f500020
:1036100002003e000003200062fc0700a08620009c
:1036200067fc07000000eb005efc07008401370028
:10363000600020005bfc0700d6f40700dbf4070005
:10364000e0f407007e0137006000200055fc070011
:103650008040eb00a0862000def90700a086200055
:1036600057fc07000000eb004efc07007401370018
:10367000600020004bfc0700208b20001080fb0026
:1036800048fc0700308b20001080fb0045fc070041
:10369000408b20001080fb0042fc070068013700cf
:1036a000600020003ffc070024fe07000045880062
:1036b00022fe07001045880020fe070020458800f4
:1036c0001efe0700304588001cfe070040458800ac
:1036d000004278003345800022458000114580007b
:1036e00000458000d4f80700550137006000200035
:1036f0002cfc070011fe0700004588000ffe0700a4
:10370000104588000dfe0700204588000bfe0700cd
:1037100030458800804178002245800011458000b6
:10372000004580004df8070045013700600020008b
:103730001cfc07000071220008fe070040438800bf
:103740000000e0003e013a00a0862000d8fc0700ff
:1037500002002000a347240028fa0700fefa070011
:103760009ef4070036013700600020000dfc0700c2
:1037700000712200f9fd0700404388000000e000ce
:103780002f013a00a0862000c9fc0700020020009b
:10379000a347240019fa0700effa07009ff4070077
:1037a0002701370060002000fefb070000712200a7
:1037b000eafd0700404388000000e00020013a00d5
:1037c000a0862000bafc070002002000a3472400c6
:1037d0000afa0700e0fa0700a0f407001801370012
:1037e00060002000effb070000712200dbfd0700f6
:1037f000404388000000e00011013a00a08620004c
:10380000abfc070002002000a3472400fbf90700df
:10381000d1fa0700a1f40700090137006000200079
:10382000e0fb070034f407000501370060002000ca
:10383000dcfb07003cf407000101370060002000ba
:10384000d8fb070044f40700fd00370060002000ab
:10385000d4fb07004ff40700f90037006000200098
:10386000d0fb070051f40700f5003700600020008e
:10387000ccfb070053f40700f10037006000200084
:10388000c8fb0700a08620000048eb00c040800075
:103890000018a30009003a00914180000118a3001c
:1038a00006003a00624280000218a30003003a00ba
:1038b000334380000318a3000900320010002000e9
:1038c0000045880020512900bdfb070080812000b1
:1038d00010007800620060001f0032001600370000
:1038e000010070000028a30003003a0003017100ea
:1038f0000228a300090032002000200000458800b3
:1039000000542900aefb07008081200010007800e1
:1039100064006000580032004f0037000000eb00e8
:103920000045880040522900a5fb07000000eb007d
:103930009cfb0700c2003700a08620005df907004d
:10394000e2522900a1862000808140000300090086
:10395000b25978004200b1002083200010007800a6
:103960006200600008003200a086200051f90700c4
:1039700022532900a1862000808140000300090015
:10398000b25978004200b100c084200010007800d5
:103990006200600008003200a086200045f90700a0
:1039a00062532900a18620008081400003000900a5
:1039b000b25978004200b100608620001000780003
:1039c0006200600008003200a086200039f907007c
:1039d000a2532900a1862000808140000500090033
:1039e000b25978006200b100a086200031f90700ca
:1039f00011012000700110000201d10001014100fd
:103a00002245880010012000800f51000800360078
:103a1000a486200003c2b3000100370080007800b4
:103a2000037278000100e800820f5000fbff3900ac
:103a30000000e80010458800a88620008044eb00c4
:103a400009747800080078001af90700000444009f
:103a500079fc9f0047003700a086200015f9070079
:103a6000e2522900a1862000808140000300090065
:103a7000b25978004200b100208320001000780085
:103a80006400600008003200a086200009f90700e9
:103a900022532900a18620008081400003000900f4
:103aa000b25978004200b100c084200010007800b4
:103ab0006400600008003200a0862000fdf80700c6
:103ac00062532900a1862000808140000300090084
:103ad000b25978004200b1006086200010007800e2
:103ae0006400600008003200a0862000f1f80700a2
:103af000a2532900a1862000808140000500090012
:103b0000b25978006200b100a0862000e9f80700f1
:103b100011012000700110000201d10001014100db
:103b20002245880010012000800f51000800360057
:103b3000a486200003c2b300010037008000780093
:103b4000037278000100e800800f5100fbff3e0087
:103b50000000e80010458800a88620008044eb00a3
:103b60000974780008007800d2f8070000044400c7
:103b700079fc9f00a086200011fb07000000eb00ed
:103b800008fb07002e0037006000200005fb07003f
:103b900080408000cf80de004cf90700b2402c004e
:103ba000f3bc230015f90700e0448800f1448800c5
:103bb00002442a00f3dd2300cef807000001be0016
:103bc00021002000a08620004dfc0700a0862000d8
:103bd000fbfa07000000eb00f2fa070018003700bc
:103be00060002000effa070050418000cf80de0027
:103bf00036f90700b2402c00f3bc2300fff80700a1
:103c0000e0448800f144880002442a00f3dd2300e8
:103c1000b8f807000001be0021002000a0862000a7
:103c200037fc0700a0862000e5fa07000000eb0043
:103c3000dcfa070002003700f00f2000d9fa070075
:103c40004f04be00000006002222ab00010032003b
:103c50002222a900c7fa07000004e0000200320097
:103c6000b6fc0700dcfc0700000006009002200004
:103c7000303a8800f0f32f004427b60000fe2f00f2
:103c80004427b60000022000123a80008200600043
:103c9000fdff320050c7a80051a7a800803a80005d
:103ca0000030b30000a0a000803a880051e7a800cf
:103cb00000002400833a800083006000fdff320092
:103cc00081e0a900c982a800c962a900f20b200006
:103cd000103a80000001610060042000710520009e
:103ce0002374200080497800814978008249780057
:103cf00002fc2f002335800003016100c200b300e5
:103d000022358800f20f2c00d336800003016100b9
:103d10000230b300d2368800123a80000260a00060
:103d20002374200080497800814978008249780016
:103d300083f50700c7f407006afc0700c2ff07000d
:103d400092f4070078f50700fcff3700881f780021
:103d5000891f78008a1f78008b1f78008c1f7800dd
:103d60008d1f78008e1f78004400f800b80e2000e8
:103d7000280288000003900010029000a00090002c
:103d800030019000e8044000e00290000200ca0008
:103d90000180ca000030cb000700cc003900780059
:103da0004001880019007800500188001281c2008b
:103db0001301c6005001800080147800400180008b
:103dc000800c78000500c8005080c8000000cb00bf
:103dd0007000c8000000cd004400f9004f077800d3
:103de000cf0678004f067800cf0578004f057800a1
:0c3df000cf0478004f04780000000600ab
:020000040000fa
:103dfc00ba08000002000000000000006808000083
:103e0c0042000000000000000008000068000000f4
:103e1c0000000000aa0800001000000000000000d4
:043e2c000000000092
:020000040000fa
:0200000401f009
:04000000ffff0000fe
:020000040000fa
:0200000401f009
:04000800ffff0000f6
:020000040000fa
:0200000401f009
:04000c0079ffff0079
:020000040000fa
:0200000401f009
:040010009bffff0053
:020000040000fa
:0200000401f009
:040014007fffff006b
:020000040000fa
:0200000401f009
:04001800ffffff00e7
:020000040000fa
:0200000401f009
:04001c00deffff0004
:00000001FF
